:040000004CEF1AF0B7
:08000800046ED8CF05F0E0CF33
:1000100006F00001E9CF0CF0EACF07F0E1CF08F0DD
:10002000E2CF09F0D9CF0AF0DACF0BF0F3CF12F01C
:10003000F4CF13F0FACF14F0F5CF15F0F6CF16F099
:10004000F7CF17F000C00EF001C00FF002C010F0A3
:1000500003C011F09DAA30EF00F09EBAACEF07F09C
:100060000EC000F00FC001F010C002F011C003F08C
:100070000CC0E9FF07C0EAFF078E08C0E1FF09C016
:10008000E2FF0AC0D9FF0BC0DAFF12C0F3FF13C0B2
:10009000F4FF14C0FAFF15C0F5FF16C0F6FF17C035
:1000A000F7FF045006C0E0FF05C0D8FF1000F76A54
:1000B000BE0FF66E000EF7220900F5501200000088
:1000C00000000000005F00000007000700147F141C
:1000D0007F14242A7F2A122313086462364956208B
:1000E000500008070300001C2241000041221C00B0
:1000F0002A1C7F1C2A08083E08080080703000086F
:1001000008080808000060600020100804023E5142
:1001100049453E00427F40007249494946214149D4
:100120004D331814127F1027454545393C4A49493B
:100130003141211109073649494936464949291EA5
:100140000000140000004034000000081422411494
:1001500014141414004122140802015909063E41E6
:100160005D594E7C1211127C7F494949363E41410E
:1001700041227F4141413E7F494949417F09090967
:10018000013E414151737F0808087F00417F4100D3
:100190002040413F017F081422417F404040407F82
:1001A000021C027F7F0408107F3E4141413E7F09CF
:1001B0000909063E4151215E7F0919294600F76A67
:1001C000CE0FF66E010EF7220900F55012002649F7
:1001D00049493203017F01033F4040403F1F204017
:1001E000201F3F4038403F63140814630304780421
:1001F000036159494D43007F4141410204081020E9
:10020000004141417F04020102044040404040005F
:100210000307080020545478407F28444438384469
:10022000444428384444287F385454541800087EE5
:10023000090218A4A49C787F0804047800447D4037
:10024000002040403D007F1028440000417F4000D6
:100250007C047804787C080404783844444438FCEE
:100260001824241818242418FC7C08040408485472
:1002700054542404043F44243C4040207C1C20402F
:10028000201C3C4030403C44281028444C90909026
:100290007C4464544C440008364100000077000060
:1002A00000413608000201020402F76ABA0FF66E36
:1002B000020EF7220900F55012006C6C616D61723C
:1002C0000000F76AD20FF66E020EF7220900F55011
:1002D00012004C4C414D41444120454E5452414E38
:1002E00054450000F76AF40FF66E020EF72209007B
:1002F000F550120050494C4752494D00F76A0C0F17
:10030000F66E030EF7220900F5501200434F4E54CB
:1003100041444F52204445205041534F53004D61BA
:100320006C2C207265636962693A2000DDC6EAFFC1
:10033000DCC6E9FF070155C7EFFFE92AD8B4EA2A6E
:10034000EF6A0601DC2BD8B4DD2B00011200070197
:100350006AC7E9FF6BC7EAFFEFCF6EF76DC703F01F
:100360006CC7E9FF6DC7EAFFEF506E5D15E16BC723
:1003700003F06AC7E9FF03C0EAFFEF5203E1000E92
:10038000016E1FD06BC703F06A516A2BD8B46B2B78
:100390006C2BD8B46D2BDCD76BC703F06AC7E9FFB1
:1003A0006BC7EAFFEFCF6EF76DC703F06CC7E9FFCD
:1003B0006DC7EAFFEF506E5D02E2FF0E01D0010E45
:1003C000016E0001D1EF06F00701696B686B69519E
:1003D00003080BE3260E6825E96E000E6921EA6E1C
:1003E000EF6A682BD8B4692BF2D70001120007011D
:1003F0009B517F0803E39C513F0801E26ED09D535F
:1004000036E09C31006E003200321F0E00160050A4
:100410009F6B9E6F9E35026E9F35036E02360336CC
:100420000236033602360336023603360236033608
:1004300002360336800E021602509B259E6F000E78
:1004400003209F6F260E9E25E96E000E9F21EA6E07
:100450009C51070B016E010E006E015204E0D89012
:100460000036012EFCD70050EF10EF6E36D09C31D5
:10047000006E003200321F0E001600509F6B9E6F00
:100480009E35026E9F35036E023603360236033602
:100490000236033602360336023603360236033698
:1004A000800E021602509B259E6F000E03209F6F48
:1004B000260E9E25E96E000E9F21EA6E9C51070BC9
:1004C000016E010E006E015204E0D8900036012E3C
:1004D000FCD70050FF0AEF14EF6E00011200070175
:1004E0008D9186518A5D9B6F87518B599C6F036EEE
:1004F0009B519CAF08D0000ED8809B55006E000E1B
:100500009C55036E00509B6F03C09CF78451885D1F
:100510009D6F855189599E6F036E9D519EAF08D086
:10052000000ED8809D55006E000E9E55036E005043
:10053000016E03AE03D09CAF0AD002D09CBF08D09E
:1005400003509C5D05E303E19B51015C01E28D8159
:100550008DA118D085C794F784C793F787C785F70F
:1005600086C784F794C787F793C786F789C796F736
:1005700088C795F78BC789F78AC788F796C78BF71F
:1005800095C78AF789AF03D085AF0AD002D085BF5F
:100590001FD08951855D1CE303E18451885D18E219
:1005A00085C798F784C797F789C785F788C784F701
:1005B00098C789F797C788F787C79AF786C799F7C3
:1005C0008BC787F78AC786F79AC78BF799C78AF7C9
:1005D0008451885D006E8551895900C08FF786511E
:1005E0008A5D9B6F87518B599C6F036E9B519CAFAB
:1005F00008D0000ED8809B55006E000E9C55036EEF
:100600000050906FD8908F31036A916F03C092F7BA
:1006100087AF03D08BAF0AD002D08BBF0AD08751EF
:100620008B5D07E303E18A51865D03E2010E8E6F65
:1006300001D08E6985AF03D089AF0AD002D089BFBF
:1006400047D08551895D44E303E18451885D40E3EF
:100650008DA115D08C530AE086C79BF784C79CF701
:10066000010E9D6F0001C3DE08D0070186C79BF70E
:1006700084C79CF79D6B0001BADE14D007018C5330
:100680000AE084C79BF786C79CF7010E9D6F0001A7
:10069000AEDE08D0070184C79BF786C79CF79D6B29
:1006A0000001A5DE07019051915F000E925B92AFB1
:1006B0000BD0036A8E51E8BE0306862703508723BA
:1006C0008F519127000E9223842BD8B4852BB2D75B
:1006D0000001120007016F516D25FF0F716F856BCF
:1006E0006DC784F7876B6EC786F7896B886F8B6BD6
:1006F0006EC78AF770C78CF70001F1DE12000701A0
:1007000081518025FF0F836F856B7FC784F7876BCF
:1007100080C786F7896B7FC788F78B6B8A6F82C724
:100720008CF70001DCDE120068C76DF769C76EF751
:100730006AC76FF7010E0701706F0001CBDF070179
:100740006B516925FF0F6C6F68C76DF76E6F6AC7D5
:100750006FF7010E706F0001BDDF68C77FF769C7D3
:1007600080F76BC781F7010E0701826F0001C7DFB9
:1007700007016A516825FF0F6C6F7F6F69C780F7AB
:100780006BC781F7010E826F0001B9DF120007010C
:100790006F517F0803E370513F0801E204D06FC737
:1007A00022F070C723F00001120007016F5302E12D
:1007B000010E6F6F6FC724F000011200036A07017A
:1007C00078C77DF703C07EF77A5178257EBF04D0C5
:1007D0007E5311E17D5D0FE27DC77FF779C780F71A
:1007E0007BC781F77CC782F7000189DF07017D2B7A
:1007F000D8B47E2BE9D70001120007017051200800
:1008000005E1225203E125A001D0C4D070510708B0
:1008100004E1236A23C022F0BDD0705108080AE128
:100820002450060DF350225C05E32450060DF350CE
:10083000225EB0D070510D0802E1226AABD0705137
:100840000A080CE12450080DF35023262450070D0C
:10085000F3502324400801E2236A9CD070511F0802
:1008600003E270517E0802E23F0E706F726B7251AC
:1008700004085AE3705152080DE3200E705D050D17
:10088000F3507225036A000112DC016EE8CF74F7A1
:100890000BD00701530E705D050DF3507225036AEE
:1008A00000018DDCE8CF74F70701736B7351060804
:1008B00039E374A102D0718101D07191242C13D03D
:1008C00072512224756F73512324766F000E71B11B
:1008D000010E776F75C79BF776C79CF79D6F000178
:1008E00086DD1AD0070172512402F3502224756F5D
:1008F00073512402F3502324766F000E71B1010E60
:10090000776F75C778F776C779F724C07AF724C070
:100910007BF77C6F000152DF07017351732BD89076
:100920007433C4D7722BA3D72450050DF35022245F
:10093000756F2450070DF3CF76F775C778F723C08E
:1009400079F724C07AF776C77BF77C6B000136DF36
:100950002450060DF35022262450060DF350800F2C
:10096000225C03E002E3800E226E25A012D0245008
:10097000050DF350222480080CE2226A2450080D51
:10098000F35023262450070DF3502324400801E29E
:10099000236A0701000112006AC76FF76BC770F77F
:1009A000F6DE6EC76FF701DF6DC703F007016CC796
:1009B000E9FF6DC7EAFFEF5211E06DC703F06C511C
:1009C0006C2BD8B46D2BE96E03C0EAFFEFCF6FF745
:1009D0006FC770F7000111DFE7D7070100011200B0
:1009E00007016A516C03F3CF01F0F4CF00F06D03FF
:1009F000F35000266B516C03F3500020026E00018F
:100A0000120007016A51070B006E6B31026E6A31EA
:100A1000016E02320132023201321F0E0216015003
:100A20006C25E96E02506D21EA6EEFCF01F0002ACD
:100A300001D00132002EFDD700011200080E016E18
:100A400000008A929392000007016D378A90D8B017
:100A50009380D8A09390938281A2FED7012E01D0DB
:100A600002D00001EDD700008A929392000093809B
:100A700000000000938281A2FED7016A000081B0CD
:100A800001808A9293928A9093900001120007014C
:100A90006C6B93800000938200008A90939000001A
:100AA0008A92939220C06DF70001C8DF6CC76DF782
:100AB000C5DF6BC76DF7C2DF93900000938281A200
:100AC000FED7000000D00000938000001200210E2D
:100AD00007016B6F0001DBDF07016B6B0001D7DFE4
:100AE0007F0E07016B6F0001D2DF220E07016B6FD3
:100AF0000001CDDF07016B6B0001C9DF070E0701A5
:100B00006B6F0001C4DF0701696B686B69510308F3
:100B10003BE393800000938200008A909390000052
:100B20008A92939220C06DF7000188DF400E070182
:100B30006D6F000183DF07016A6B6A510F0812E3D2
:100B4000260E6825E96E000E6921EA6EEFCF6BF77D
:100B50006BC76DF7000172DF0701682BD8B4692BF2
:100B60006A2BEBD76851D8B46907680793900000E7
:100B7000938281A2FED7000000D000009380000085
:100B8000682BD8B4692BC2D70001120004013B6B5B
:100B90003B5113083AE33C6B3C51130834E33C519E
:100BA0009F250701686F04013B51A0250701696F6C
:100BB0006B6B3BC46AF76D6B140E6C6F000110DF3A
:100BC00001C06AF704013C5107010124016E000EC7
:100BD0000220036E01C06AF76B6F060E6D6F460E42
:100BE0006C6F00010EDF000E01B0010E07016A6F8D
:100BF00068C79BF769C79CF79D6F0001F7EC01F090
:100C000004013C2BC9D73B2BC3D7000160DF75EF34
:100C100007F004013B6B3B5113083AE33C6B3C513A
:100C2000130834E33C519F250701686F04013B51D1
:100C3000A0250701696F6B6B3BC46AF76D6B140EDF
:100C40006C6F0001CDDE01C06AF704013C51070161
:100C50000124016E000E0220036E01C06AF76B6F63
:100C6000060E6D6F780E6C6F0001CBDE000E01B0CA
:100C7000010E07016A6F68C79BF769C79CF79D6FF4
:100C80000001F7EC01F004013C2BC9D73B2BC3D783
:100C900000011DDF7BEF07F004013B6B3B511308A4
:100CA0003AE33C6B3C51130834E33C519F25070168
:100CB000686F04013B51A0250701696F6B6B3BC452
:100CC0006AF76D6B140E6C6F00018ADE01C06AF763
:100CD00004013C5107010124016E000E0220036E45
:100CE00001C06AF76B6F060E6D6FAA0E6C6F000184
:100CF00088DE000E01B0010E07016A6F68C79BF71E
:100D000069C79CF79D6F0001F7EC01F004013C2BD3
:100D1000C9D73B2BC3D70001DADE81EF07F009000A
:100D2000F5520DE0F6CF68F7F7CF69F7F5509EA8BA
:100D3000FED7AD6E68C7F6FF69C7F7FFF0D795EF2E
:100D400007F0EF5210E0EACF69F7E9CF68F7EF500C
:100D50009EA8FED7AD6E69C7EAFF68C7E9FFE92A1A
:100D6000D8B4EA2AEED79AEF07F0070EEA6E550ECE
:100D7000E96E070E016EF76A000E55EC01F00A00ED
:100D80000900F5CFEEFF012EFBD7040E07016B6FB4
:100D90008A0E6A6F070E6D6F550E6C6F0001A7EF1C
:100DA00001F00152D8A4BCD053C47FF4E4EC01F0AC
:100DB0000701666B686B696B800E6A6F400E6B6F24
:100DC0000001B2DC070EEA6E550EE96E110E016EDF
:100DD000F76A000E61EC01F00A000900F5CFEEFFA2
:100DE000012EFBD70F0E07016A6F040E6B6F070E03
:100DF0006D6F550E6C6F010E6E6F0001CDDD530EE1
:100E00000701556F430E566F4F0E576F540E586FB4
:100E1000596F5A6B3C0E6A6F0F0E6B6F070E6D6F3A
:100E2000550E6C6F010E6E6F0001B6DD070EEA6E97
:100E3000550EE96E080E016EF76A000E72EC01F0B5
:100E40000A000900F5CFEEFF012EFBD73C0E07018B
:100E50006A6F190E6B6F070E6D6F550E6C6F010E7A
:100E60006E6F000199DD0701856B690E846F876BDA
:100E7000280E866F896B730E886F8B6B380E8A6FA6
:100E8000010E8C6F00016FEC02F00701856B690E9B
:100E9000846F876B380E866F896B730E886F8B6BD0
:100EA000280E8A6F010E8C6F00016FEC02F03C0E71
:100EB0000701686F240E696F1E0E6A6F190E6B6F43
:100EC000000132DC5E0E0701686F240E696F1E0E92
:100ED0006A6F190E6B6F000127DC25880701666BAE
:100EE0006651310816E3000151D6A60E006E002EA1
:100EF000FED700008ED6A60E006E002EFED7000094
:100F0000CBD6A60E006E002EFED700000701662B82
:100F1000E7D70001E4EC01F025987FC453F40AD030
:100F20001E0EF66E030EF76EFAD6040EEA6E8A0EE9
:100F3000E96E07D70701676B675107080AE3036A81
:100F40006751800FE96E040E0320EA6EEF6A672B8B
:100F5000F3D70001E9EF07F00701546B545109087A
:100F600019E3036A5451800FE96E040E0320EA6E00
:100F70009EAAFED7AECFEFFF036A5451800FE96EF1
:100F8000040E0320EA6EEF500A0802E10A0E546FC5
:100F9000542BE4D7040E0601DD6F8A0EDC6F80C48B
:100FA00055F7000196EC01F081C455F796EC01F07D
:100FB00082C455F796EC01F083C455F796EC01F026
:100FC00084C455F796EC01F085C455F796EC01F012
:100FD000CCD69E9A30EF00F030313A30373A343187
:100FE000000032352D30312D32330000060EEA6E0E
:100FF000F70EE96EEF500DE0060E016E006A002E4E
:10100000FED7012EFBD77B0E006E002EFED7EF2EF3
:10101000F3D71200F5C621F0F6C620F00A0E06013D
:10102000F76F0001E3DF196AF2BE198EF29EAE0E71
:1010300007016B6F00012BDD19BEF28E196AF2BE3B
:10104000198EF29ED50E07016B6F000120DD19BECF
:10105000F28E196AF2BE198EF29E800E07016B6F36
:10106000000115DD19BEF28E196AF2BE198EF29ECC
:10107000A80E07016B6F00010ADD19BEF28E196A16
:10108000F2BE198EF29E3F0E07016B6F0001FFDC6E
:1010900019BEF28E196AF2BE198EF29ED30E0701A6
:1010A0006B6F0001F4DC19BEF28E196AF2BE198E64
:1010B000F29E07016B6B0001EADC19BEF28E196A21
:1010C000F2BE198EF29E400E07016B6F0001DFDC4D
:1010D00019BEF28E196AF2BE198EF29E8D0E0701AC
:1010E0006B6F0001D4DC19BEF28E0601F52D0DD018
:1010F000196AF2BE198EF29E100E07016B6F000185
:10110000C6DC19BEF28E0CD00601196AF2BE198E29
:10111000F29E140E07016B6F0001B9DC19BEF28E4E
:10112000196AF2BE198EF29E200E07016B6F000144
:10113000AEDC19BEF28E196AF2BE198EF29E07015C
:101140006B6B0001A4DC19BEF28E196AF2BE198E17
:10115000F29EA10E07016B6F000199DC19BEF28EA1
:10116000196AF2BE198EF29EC80E07016B6F00015C
:101170008EDC19BEF28E196AF2BE198EF29EDA0E5C
:1011800007016B6F000183DC19BEF28E196AF2BE93
:10119000198EF29E120E07016B6F000178DC19BEEA
:1011A000F28E196AF2BE198EF29E810E07016B6FE4
:1011B00000016DDC19BEF28E0601F52D0DD0196A05
:1011C000F2BE198EF29E9F0E07016B6F00015FDC6D
:1011D00019BEF28E0CD00601196AF2BE198EF29E6B
:1011E000CF0E07016B6F000152DC19BEF28E196A37
:1011F000F2BE198EF29ED90E07016B6F000147DC1B
:1012000019BEF28E0601F52D0DD0196AF2BE198EA7
:10121000F29E220E07016B6F000139DC19BEF28EBF
:101220000CD00601196AF2BE198EF29EF10E07016A
:101230006B6F00012CDC19BEF28E196AF2BE198E9A
:10124000F29EDB0E07016B6F000121DC19BEF28EEE
:10125000196AF2BE198EF29E400E07016B6F0001F3
:1012600016DC19BEF28E196AF2BE198EF29EA40E19
:1012700007016B6F00010BDC19BEF28E196AF2BE1A
:10128000198EF29EA60E07016B6F000100DC19BEDD
:10129000F28E196AF2BE198EF29E2E0E07016B6F46
:1012A000000147EC05F019BEF28E196AF2BE198EE4
:1012B000F29EAF0E07016B6F000147EC05F019BEFF
:1012C000F28E226A236A010E246EFFEF1CF0080ED4
:1012D000016E050E006E002EFED78A929392060EC6
:1012E000006E002EFED70601F9378A90D8B09380A1
:1012F000D8A09390938281A2FED7012E01D002D074
:101300000001E7D7050E006E002EFED78A92939259
:1013100000009380060E006E002EFED7060E006EB3
:10132000002EFED7938281A2FED7016A060E006EC0
:10133000002EFED781B001808A9293928A9093907A
:1013400000011200080E0601FA6F00C0FBF6938040
:10135000060E006E002EFED7938281A2FED781B0CA
:10136000D88081A0D8900136050E006E002EFED7E1
:1013700093928A92FA2FEBD79380060E006E002E7E
:10138000FED78A90FB51D8A493900000938281A24B
:10139000FED7050E006E002EFED78A929392060E9F
:1013A000006E002EFED78A90939000011200060175
:1013B000F539006E0F0E001600500A0DF3CFF6F649
:1013C000F5510F0BF625016E000112009380050EFA
:1013D000006E002EFED79382060E006E002EFED702
:1013E0008A909390050E006E002EFED78A929392FB
:1013F000D00E0601F96F00016ADF0601F96B0001EA
:1014000066DF9380050E006E002EFED79382060ED7
:10141000006E002EFED781A2FED78A909390050E13
:10142000006E002EFED78A929392D10E0601F96FBC
:1014300000014DDF010E006E85DF01C026F4010EB4
:10144000006E80DF01C027F4010E006E7BDF01C05B
:1014500028F4010E006E76DF01C029F4010E006E43
:1014600071DF01C02AF4010E006E6CDF01C02BF4A5
:10147000006A68DF01C02CF493900000938281A27F
:10148000FED7050E006E002EFED700D00000938020
:10149000050E006E002EFED726C4F5F688DF01C0CB
:1014A00026F427C4F5F683DF01C027F428C4F5F637
:1014B0007EDF01C028F42AC4F5F679DF01C02AF4E2
:1014C0002BC4F5F674DF01C02BF42CC4F5F66FDFE6
:1014D00001C02CF4260E016E040E026E04EF1DF006
:1014E0000601FD51016AFC5D03E2FCC600F00CD070
:1014F000006A080EFE6FFC370036FD51005CD8B064
:10150000006E0136FE2FF7D700011200FAC6FCF676
:101510000A0E0601FD6F0001E3DF01380601FB6FD3
:10152000F00EFB17FAC6FCF60A0EFD6F0001D8DFBD
:1015300000500601FB25016E00011200040E060199
:10154000F525016E000EF621036E01C0F7F6F86F67
:10155000040EF525E96E000EF621EA6EEFCFF9F6DE
:10156000F9C6FAF60001D2DFF8C6EAFFF7C6E9FFCE
:1015700001C0EFFF050E0601F525016E000EF621F4
:10158000036E01C0F7F6F86F050EF525E96E000E43
:10159000F621EA6EEFCFF9F6F9C6FAF60001B6DFEA
:1015A000F8C6EAFFF7C6E9FF01C0EFFF060E060125
:1015B000F525016E000EF621036E01C0F7F6F86FF7
:1015C000060EF525E96E000EF621EA6EEFCFF9F66C
:1015D000F9C6FAF600019ADFF8C6EAFFF7C6E9FF96
:1015E00001C0EFFF020E0601F525016E000EF62187
:1015F000036E01C0F7F6F86F020EF525E96E000ED6
:10160000F621EA6EEFCFF9F6F9C6FAF600017EDFB1
:10161000F8C6EAFFF7C6E9FF01C0EFFF010E0601B9
:10162000F525016E000EF621036E01C0F7F6F86F86
:10163000010EF525E96E000EF621EA6EEFCFF9F600
:10164000F9C6FAF6000162DFF8C6EAFFF7C6E9FF5D
:1016500001C0EFFFF5C601F0F6C603F0F5C6F7F6D8
:10166000F6C6F8F6F5C6E9FFF6C6EAFFEFCFF9F6DB
:10167000F9C6FAF600014ADFF8C6EAFFF7C6E9FF45
:1016800001C0EFFF9380050E006E002EFED79382FF
:10169000060E006E002EFED78A909390050E006E07
:1016A000002EFED78A929392D00E0601F96F0001A8
:1016B0000EDE0601F96B00010ADEF5C6E9FFF6C68B
:1016C000EAFFEFCFF7F6F7C6F9F6000100DE010EEC
:1016D0000601F525E96E000EF621EA6EEFCFF7F66A
:1016E000F7C6F9F60001F3DD020E0601F525E96EF5
:1016F000000EF621EA6EEFCFF7F6F7C6F9F6000115
:10170000E6DD030E0601F525E96E000EF621EA6E10
:10171000EFCFF7F6F7C6F9F60001D9DD040E0601A2
:10172000F525E96E000EF621EA6EEFCFF7F6F7C663
:10173000F9F60001CCDD050E0601F525E96E000E77
:10174000F621EA6EEFCFF7F6F7C6F9F60001BFDD36
:10175000060E0601F525E96E000EF621EA6EEFCFC2
:10176000F7F6F7C6F9F60001B2DD93900000938218
:1017700081A2FED7050E006E002EFED700D000001D
:101780009380050E006E002EFED745EF1DF093806E
:10179000050E006E002EFED79382060E006E002E00
:1017A000FED78A909390050E006E002EFED78A9287
:1017B0009392D00E0601F96F000189DDF7C6F9F6A4
:1017C00086DD9380050E006E002EFED79382060EF6
:1017D000006E002EFED781A2FED78A909390050E50
:1017E000006E002EFED78A929392D10E0601F96FF9
:1017F00000016DDD006AA6DD01C0F8F693900000DF
:10180000938281A2FED7050E006E002EFED700D077
:1018100000009380050E006E002EFED70601F8C66C
:1018200001F0000148EF0CF09380050E006E002ED1
:10183000FED79382060E006E002EFED78A909390FC
:10184000050E006E002EFED78A929392D00E0601EE
:10185000F96F00013CDDF7C6F9F639DDF8C6F9F697
:1018600036DD93900000938281A2FED7050E006EB4
:10187000002EFED700D000009380050E006E002ED3
:10188000FED755EF0CF00E0E0601F76F00017FD763
:1018900001C0F6F6A30E0601F617F551F6130E0E6B
:1018A000F76FF6C6F8F60001BFD74BEF1DF0040145
:1018B0003B6B3B511D0854E33C6B3C511D084EE310
:1018C0003C513D250601F56F04013B513E250601C3
:1018D000F66F196AF2BE198EF29E07016B6B3BC45C
:1018E0006AF76D6B1E0E6C6F0001F0EC04F019BE10
:1018F000F28E02C0F8F601C0F7F604013C51060171
:101900000124016E000E0220036E0150196AF2BE1E
:10191000198EF29E07016A6F03C06BF7040E6D6F9C
:10192000A40E6C6F000101EC05F019BEF28E000EE2
:1019300001B0010E0601F76F196AF2BE198EF29E10
:10194000F5C69BF7F6C69CF7E8CF9DF70001F7ECCC
:1019500001F019BEF28E04013C2BAFD73B2BA9D767
:10196000196AF2BE198EF29E000167EC05F019BEED
:10197000F28EE2EF1DF0016A026A006A036A070153
:10198000025102E101511AE0100E036FD8900601D6
:10199000FF3707010037003603360251035C02E1CE
:1019A0000151005C07E30151005ED8A0030602511B
:1019B000035ED88001360236032FE8D700011200FB
:1019C0000601F86BF76BFA6BF96BFC6BFB6BF6C6F9
:1019D00000F7F5C6FFF60701026B0A0E016F000162
:1019E000CADF00C0F7F6060103C0F8F6F6C600F736
:1019F000F5C6FFF60701026B0A0E016F0001BBDF9F
:101A000002C0FAF601C0F9F6FAC600F7F9C6FFF609
:101A10000701026B0A0E016F0001ADDF00C0F9F68D
:101A2000060103C0FAF6F6C600F7F5C6FFF6030E88
:101A30000701026FE80E016F00019DDF00C0FBF699
:101A4000060103C0FCF6FCC600F7FBC6FFF6070163
:101A5000026B640E016F00018EDF02C0FCF601C054
:101A6000FBF60601F751006EF851036E035004E1D6
:101A70000052000141E00601035005E1010E005C47
:101A800000013EE00601035005E1020E005C00018A
:101A90003BE00601035005E1030E005C000138E065
:101AA0000601035005E1040E005C000135E006016B
:101AB000035005E1050E005C000132E00601035011
:101AC00005E1060E005C00012FE00601035005E170
:101AD000070E005C00012CE00601035005E1080E32
:101AE000005C000129E00601035005E1090E005CDD
:101AF000000126E0060129D0300E0401446F28D0F1
:101B0000310E0401446F24D0320E0401446F20D002
:101B1000330E0401446F1CD0340E0401446F18D0FE
:101B2000350E0401446F14D0360E0401446F10D0FA
:101B3000370E0401446F0CD0380E0401446F08D0F6
:101B4000390E0401446F04D00601570E0401446F9E
:101B50000601F951006EFA51036E035004E1005280
:101B6000000141E00601035005E1010E005C0001A7
:101B70003EE00601035005E1020E005C00013BE07F
:101B80000601035005E1030E005C000138E0060188
:101B9000035005E1040E005C000135E0060103502E
:101BA00005E1050E005C000132E00601035005E18D
:101BB000060E005C00012FE00601035005E1070E50
:101BC000005C00012CE00601035005E1080E005CFA
:101BD000000129E00601035005E1090E005C000147
:101BE00026E0060129D0300E0401436F28D0310EC3
:101BF0000401436F24D0320E0401436F20D0330E12
:101C00000401436F1CD0340E0401436F18D0350E0D
:101C10000401436F14D0360E0401436F10D0370E09
:101C20000401436F0CD0380E0401436F08D0390E05
:101C30000401436F04D00601580E0401436F0601EE
:101C4000FB51006EFC51036E035004E10052000191
:101C500041E00601035005E1010E005C00013EE099
:101C60000601035005E1020E005C00013BE00601A5
:101C7000035005E1030E005C000138E0060103504B
:101C800005E1040E005C000135E00601035005E1AA
:101C9000050E005C000132E00601035005E1060E6E
:101CA000005C00012FE00601035005E1070E005C17
:101CB00000012CE00601035005E1080E005C000164
:101CC00029E00601035005E1090E005C000126E051
:101CD000060129D0300E0401426F28D0310E0401D4
:101CE000426F24D0320E0401426F20D0330E040123
:101CF000426F1CD0340E0401426F18D0350E04011F
:101D0000426F14D0360E0401426F10D0370E04011A
:101D1000426F0CD0380E0401426F08D0390E040116
:101D2000426F04D00601590E0401426F0001D7EF43
:101D30000EF0196AF2BE198EF29EF5C66FF7F6C65E
:101D400070F7C7EC03F019BEF28E196AF2BE198E55
:101D5000F29EF8C66FF7D5EC03F019BEF28E196A41
:101D6000F2BE198EF29EF7C670F7FDEC03F019BEB5
:101D7000F28E120083AE01D0258225A208D0040184
:101D80003F2B83AE02D02582FCD72592000125B2DD
:101D900091D004013F51050804E13F6B402BD8B4BA
:101DA000412B41C4F6F640C4F5F6000109D6410EB8
:101DB0000601F56F1D0EF66F42C4F7F6030EF86FBD
:101DC0000001B7DF520E0601F56F1D0EF66F43C41A
:101DD000F7F6030EF86F0001ACDF630E0601F56F36
:101DE0001D0EF66F44C4F7F6030EF86F0001A1DF75
:101DF00004013B6B3B51020838E3036A3B51420F3D
:101E0000E96E040E0320EA6EEFCF54F4545130080B
:101E10001BE05451310818E05451320815E0545178
:101E2000330812E0545134080FE0545135080CE0E7
:101E30005451360809E05451370806E05451380827
:101E400003E0545139080FE1036A3B51420FE96E38
:101E5000040E0320EA6EEFCFF5F60601F5519EA8B9
:101E6000FED7AD6E04013B2BC5D73B6B3B51010840
:101E700020E3036A3B51450FE96E040E0320EA6E2E
:101E8000EFCF54F454510D0803E054510A080FE108
:101E9000036A3B51450FE96E040E0320EA6EEFCF53
:101EA000F5F60601F5519EA8FED7AD6E04013B2B59
:101EB000DDD70001120083A001D0258625A609D018
:101EC00083A002D02586FCD7259625980401532BA4
:101ED000000104015351040802E1010E536F5351F4
:101EE000050802E1010E536F0001120004013B6B73
:101EF0003B511D0854E33C6B3C511D084EE33C51E3
:101F00003D250601F56F04013B513E250601F66FA4
:101F1000196AF2BE198EF29E07016B6B3BC46AF719
:101F20006D6B1E0E6C6F0001F0EC04F019BEF28EAA
:101F300002C0F8F601C0F7F604013C510601012485
:101F4000016E000E0220036E0150196AF2BE198E56
:101F5000F29E07016A6F03C06BF7050E6D6F150ED9
:101F60006C6F000101EC05F019BEF28E000E01B09D
:101F7000010E0601F76F196AF2BE198EF29EF5C6C0
:101F80009BF7F6C69CF7E8CF9DF70001F7EC01F050
:101F900019BEF28E04013C2BAFD73B2BA9D7196A8F
:101FA000F2BE198EF29E000167EC05F019BEF28EAA
:101FB000120004013B6B3B511D0855E33C6B3C5147
:101FC0001D084FE33C513D25FE0F0601F56F04014E
:101FD0003B513E250601F66F196AF2BE198EF29E3C
:101FE00007016B6B3BC46AF76D6B1E0E6C6F0001D3
:101FF000F0EC04F019BEF28E02C0F8F601C0F7F65C
:1020000004013C5106010124016E000E0220036E02
:102010000150196AF2BE198EF29E07016A6F03C061
:102020006BF7050E6D6F860E6C6F000101EC05F00D
:1020300019BEF28E000E01B0010E0601F76F196A8B
:10204000F2BE198EF29EF5C69BF7F6C69CF7E8CF56
:102050009DF70001F7EC01F019BEF28E04013C2B54
:10206000AED73B2BA8D7196AF2BE198EF29E00019B
:1020700067EC05F019BEF28EFAEF1DF00601F7517C
:10208000070B006EF731016E013201321F0E01168F
:102090000150F825E96E000EF921EA6EEFCF01F04C
:1020A000002A01D00132002EFDD7000183EF10F08D
:1020B00004013B6B3B510E083FE33C6B3C510E0867
:1020C00039E3020E4A253C250601F56F020E040194
:1020D0004B253B250601F66F04013B510F0DF350D4
:1020E0000601F86BF76F036A04013C510601F725FE
:1020F000016EF851032201C0F7F6060EF96F290EA2
:10210000F86F0001BBD7000E01B0010E0601F76F9A
:10211000196AF2BE198EF29EF5C69BF7F6C69CF7B9
:10212000E8CF9DF70001F7EC01F019BEF28E040133
:102130003C2BC4D73B2BBED7196AF2BE198EF29E38
:10214000000167EC05F019BEF28ED2EF1FF0060118
:10215000F66BF56B010EC26EA60E006E002EFED75A
:102160000000C282C2B2FED7C4CFF6F6F56BC350F0
:10217000F527000EF623F5C601F0F6C602F00001C1
:10218000120004014C5302E14D530FE04D51010880
:1021900005E2FF0A0AE14C512B0807E34D51020802
:1021A0000AE303E14C51020806E34D6B4C6B48C453
:1021B00049F4380E486F4C512B080AE14D51020882
:1021C00007E14D6B640E4C6F48C449F4060E486F2E
:1021D0004C512A080AE14D51020807E14D6B630E8C
:1021E0004C6F48C449F4070E486F4C5129080AE166
:1021F0004D51020807E14D6B620E4C6F48C449F423
:10220000080E486F4C5128080AE14D51020807E1B9
:102210004D6B610E4C6F48C449F4090E486F4C5128
:1022200027080AE14D51020807E14D6B600E4C6F23
:1022300048C449F40A0E486F4C5126080AE14D5132
:10224000020807E14D6B5F0E4C6F48C449F40B0E5A
:10225000486F4C5125080AE14D51020807E14D6BCA
:102260005E0E4C6F48C449F40C0E486F4C51240864
:102270000AE14D51020807E14D6B5D0E4C6F48C4F9
:1022800049F40D0E486F4C51230808E14D510208E6
:1022900005E14D6B5C0E4C6F0E0E486F4C512208E1
:1022A0000AE14D51020807E14D6B5B0E4C6F48C4CB
:1022B00049F40F0E486F4C5121080AE14D510208B4
:1022C00007E14D6B5A0E4C6F48C449F4100E486F2D
:1022D0004C5120080AE14D51020807E14D6B590E9F
:1022E0004C6F48C449F4110E486F4C511F080AE165
:1022F0004D51020807E14D6B580E4C6F48C449F42C
:10230000120E486F4C511E080AE14D51020807E1B8
:102310004D6B570E4C6F48C449F4130E486F4C5127
:102320001D080AE14D51020807E14D6B560E4C6F36
:1023300048C449F4140E486F4C511C080AE14D5131
:10234000020807E14D6B550E4C6F48C449F4150E59
:10235000486F4C511B080AE14D51020807E14D6BD3
:10236000540E4C6F48C449F4160E486F4C511A086D
:102370000AE14D51020807E14D6B530E4C6F48C402
:1023800049F4170E486F4C5119080AE14D510208E3
:1023900007E14D6B520E4C6F48C449F4180E486F5C
:1023A0004C5118080AE14D51020807E14D6B510EDE
:1023B0004C6F48C449F4190E486F4C5117080AE194
:1023C0004D51020807E14D6B500E4C6F48C449F463
:1023D0001A0E486F4C5116080AE14D51020807E1E8
:1023E0004D6B4F0E4C6F48C449F41B0E486F4C5157
:1023F00015080AE14D51020807E14D6B4E0E4C6F76
:1024000048C449F41C0E486F4C5114080AE14D5160
:10241000020807E14D6B4D0E4C6F48C449F41D0E88
:10242000486F4C5113080AE14D51020807E14D6B0A
:102430004C0E4C6F48C449F41E0E486F4C511208A4
:102440000AE14D51020807E14D6B4B0E4C6F48C439
:1024500049F41F0E486F4C5111080AE14D51020812
:1024600007E14D6B4A0E4C6F48C449F4200E486F8B
:102470004C5110080AE14D51020807E14D6B490E1D
:102480004C6F48C449F4210E486F4C510F080AE1C3
:102490004D51020807E14D6B480E4C6F48C449F49A
:1024A000220E486F4C510E080AE14D51020807E117
:1024B0004D6B470E4C6F48C449F4230E486F4C5186
:1024C0000D080AE14D51020807E14D6B460E4C6FB5
:1024D00048C449F4240E486F4C510C080AE14D5190
:1024E000020807E14D6B450E4C6F48C449F4250EB8
:1024F000486F4C510B080AE14D51020807E14D6B42
:10250000440E4C6F48C449F4260E486F4C510A08DB
:102510000AE14D51020807E14D6B430E4C6F48C470
:1025200049F4270E486F4C5109080AE14D51020841
:1025300007E14D6B420E4C6F48C449F4280E486FBA
:102540004C5108080AE14D51020807E14D6B410E5C
:102550004C6F48C449F4290E486F4C5107080AE1F2
:102560004D51020807E14D6B400E4C6F48C449F4D1
:102570002A0E486F4C5106080AE14D51020807E146
:102580004D6B3F0E4C6F48C449F42B0E486F4C51B5
:1025900005080AE14D51020807E14D6B3E0E4C6FF4
:1025A00048C449F42C0E486F4C5104080AE14D51BF
:1025B000020807E14D6B3D0E4C6F48C449F42D0EE7
:1025C000486F4C5103080AE14D51020807E14D6B79
:1025D0003C0E4C6F48C449F42E0E486F00012BEF9F
:1025E00020F00601F86BF76BFA6BF96BFC6BFB6B79
:1025F000FE6BFD6BF6C600F7F5C6FFF60701026B32
:102600000A0E016F0001BBEC0CF000C0F7F60601EA
:1026100003C0F8F6F6C600F7F5C6FFF60701026B31
:102620000A0E016F0001BBEC0CF002C0FAF601C00B
:10263000F9F6FAC600F7F9C6FFF60701026B0A0EB3
:10264000016F0001BBEC0CF000C0F9F6060103C0FD
:10265000FAF6F6C600F7F5C6FFF6030E0701026F9D
:10266000E80E016F0001BBEC0CF000C0FBF60601A8
:1026700003C0FCF6FCC600F7FBC6FFF60701026BC1
:10268000640E016F0001BBEC0CF002C0FCF601C04F
:10269000FBF6F6C600F7F5C6FFF6030E0701026F5C
:1026A000E80E016F0001BBEC0CF002C0FEF601C0A9
:1026B000FDF60601F751006EF851036E035004E178
:1026C0000052000141E00601035005E1010E005CEB
:1026D00000013EE00601035005E1020E005C00012E
:1026E0003BE00601035005E1030E005C000138E009
:1026F0000601035005E1040E005C000135E006010F
:10270000035005E1050E005C000132E006010350B4
:1027100005E1060E005C00012FE00601035005E113
:10272000070E005C00012CE00601035005E1080ED5
:10273000005C000129E00601035005E1090E005C80
:10274000000126E0060129D0300E0401506F28D088
:10275000310E0401506F24D0320E0401506F20D08E
:10276000330E0401506F1CD0340E0401506F18D08A
:10277000350E0401506F14D0360E0401506F10D086
:10278000370E0401506F0CD0380E0401506F08D082
:10279000390E0401506F04D00601570E0401506F2A
:1027A0000601F951006EFA51036E035004E1005224
:1027B000000141E00601035005E1010E005C00014B
:1027C0003EE00601035005E1020E005C00013BE023
:1027D0000601035005E1030E005C000138E006012C
:1027E000035005E1040E005C000135E006010350D2
:1027F00005E1050E005C000132E00601035005E131
:10280000060E005C00012FE00601035005E1070EF3
:10281000005C00012CE00601035005E1080E005C9D
:10282000000129E00601035005E1090E005C0001EA
:1028300026E0060129D0300E04014F6F28D0310E5A
:1028400004014F6F24D0320E04014F6F20D0330E9D
:1028500004014F6F1CD0340E04014F6F18D0350E99
:1028600004014F6F14D0360E04014F6F10D0370E95
:1028700004014F6F0CD0380E04014F6F08D0390E91
:1028800004014F6F04D00601580E04014F6F06017A
:10289000FB51006EFC51036E035004E10052000135
:1028A00041E00601035005E1010E005C00013EE03D
:1028B0000601035005E1020E005C00013BE0060149
:1028C000035005E1030E005C000138E006010350EF
:1028D00005E1040E005C000135E00601035005E14E
:1028E000050E005C000132E00601035005E1060E12
:1028F000005C00012FE00601035005E1070E005CBB
:1029000000012CE00601035005E1080E005C000107
:1029100029E00601035005E1090E005C000126E0F4
:10292000060129D0300E04014E6F28D0310E04016B
:102930004E6F24D0320E04014E6F20D0330E0401AE
:102940004E6F1CD0340E04014E6F18D0350E0401AA
:102950004E6F14D0360E04014E6F10D0370E0401A6
:102960004E6F0CD0380E04014E6F08D0390E0401A2
:102970004E6F04D00601590E04014E6F000131EF75
:1029800020F025B450D004014851495D11E1196A85
:10299000F2BE198EF29E47C49BF748C49CF7010E05
:1029A00007019D6F0001F7EC01F019BEF28E0401E2
:1029B0004851495D1FE0475128081CE2010E475D60
:1029C0000601F56F196AF2BE198EF29E0701856B3A
:1029D000846F876B49C486F7896B47C488F78B6B14
:1029E000380E8A6F010E8C6F00016FEC02F019BE79
:1029F000F28E0401472B4751640816E1280E476FF9
:102A0000196AF2BE198EF29E280E0701786F020E27
:102A1000796F3C0E7A6F370E7B6F7C6B0001DEECBA
:102A200003F019BEF28E040125A45AD04D5303E1E0
:102A30004C513B0855E24D5353E14C51640850E36F
:102A40004851495D11E1196AF2BE198EF29E47C4E0
:102A50009BF748C49CF7010E07019D6F0001F7EC3E
:102A600001F019BEF28E04014851495D1FE0475143
:102A700028081CE2010E475D0601F56F196AF2BED7
:102A8000198EF29E0701856B846F876B49C486F7A8
:102A9000896B47C488F78B6B48C48AF7010E8C6F2B
:102AA00000016FEC02F019BEF28E0401472B475172
:102AB000640816E1280E476F196AF2BE198EF29E5D
:102AC000280E0701786F020E796F3C0E7A6F370E71
:102AD0007B6F7C6B0001DEEC03F019BEF28E04010B
:102AE0000001B9EF20F004013B6B3B51130854E3A4
:102AF0003C6B3C5113084EE33C514A250601F56FEF
:102B000004013B514B250601F66F196AF2BE198E7E
:102B1000F29E07016B6B3BC46AF76D6B140E6C6F12
:102B20000001F0EC04F019BEF28E02C0F8F601C00C
:102B3000F7F604013C5106010124016E000E02204B
:102B4000036E0150196AF2BE198EF29E07016A6F78
:102B500003C06BF7050E6D6FF70E6C6F000101EC93
:102B600005F019BEF28E000E01B0010E0601F76FDE
:102B7000196AF2BE198EF29EF5C69BF7F6C69CF74F
:102B8000E8CF9DF70001F7EC01F019BEF28E0401C9
:102B90003C2BAFD73B2BA9D7196AF2BE198EF29EF8
:102BA000000167EC05F019BEF28EC7EF20F00900B6
:102BB000F55213E0F6CFF5F6F7CFF6F6196AF2BE46
:102BC000198EF29EF5CF55F796EC01F019BEF28EF4
:102BD000F5C6F6FFF6C6F7FFEAD71200D8B204D062
:102BE000070EEA6E3A0EE96E070135513919800B6E
:102BF0003F6F35AF0BD0321F331F341F351F322BC1
:102C0000D8B4332BD8B4342BD8B4352B39AF0BD040
:102C1000361F371F381F391F362BD8B4372BD8B47F
:102C2000382BD8B4392B006A016A026A036A3A6BFE
:102C30003B6B3C6B3D6B39513811371136112CE031
:102C4000200E3E6FD89032373337343735373A3726
:102C50003B373C373D3739513D5D08E138513C5DEC
:102C600005E137513B5D02E136513A5D0FE33651E4
:102C70003A5F3751D8A0373D3B5F3851D8A0383D37
:102C80003C5F3951D8A0393D3D5FD88000360136D0
:102C9000023603363E2FD6D73FAF0BD0001E011EA3
:102CA000021E031E002AD8B4012AD8B4022AD8B4BE
:102CB000032A3AC7EFFF3BC7ECFF3CC7ECFF3DC719
:102CC000ECFF00011200070131513319800B356F01
:102CD00031AF05D0301F311F302BD8B4312B33AF7B
:102CE00005D0321F331F322BD8B4332B305132036F
:102CF000F3CF01F0F4CF00F03303F350002631514D
:102D00003203F3500020026E35AF05D0011E021EC3
:102D1000012AD8B4022A000112000601FCAF03D038
:102D2000F8AF0AD002D0F8BF1FD0FC51F85D1CE309
:102D300003E1F751FB5D18E2F8C60BF7F7C60AF797
:102D4000FCC6F8F6FBC6F7F60BC7FCF60AC7FBF69F
:102D5000F6C60DF7F5C60CF7FAC6F6F6F9C6F5F69F
:102D60000DC7FAF60CC7F9F6070100AF04D006014B
:102D7000FCAF0DD003D00601FCBF21D007010051EC
:102D80000601FC5D1CE303E1FB51FF5D18E200C797
:102D90000FF7FFC60EF7FCC600F7FBC6FFF60FC71E
:102DA000FCF60EC7FBF6FEC611F7FDC610F7FAC615
:102DB000FEF6F9C6FDF611C7FAF610C7F9F6FCAF34
:102DC00003D0F8AF0AD002D0F8BF1FD0FC51F85D95
:102DD0001CE303E1F751FB5D18E2F8C613F7F7C6F1
:102DE00012F7FCC6F8F6FBC6F7F613C7FCF612C7D7
:102DF000FBF6F6C615F7F5C614F7FAC6F6F6F9C6E9
:102E0000F5F615C7FAF614C7F9F6FF51F75DD8A421
:102E10009CD0070100510601F85DD8A496D0F6C6F3
:102E200005F7F5C604F705C703F704C702F7FAAFBD
:102E300004D0070103AF12D003D0070103BF13D0A2
:102E40000601FA510701035D0EE308E10251060194
:102E5000F95DD8A002D0070106D00701FAC603F732
:102E6000F9C602F71CD005AF04D00601FAAF12D0A4
:102E700003D00601FABF12D0070105510601FA5D21
:102E80000DE308E1F9510701045DD8A002D0060165
:102E900005D00601FAC605F7F9C604F707010601D1
:102EA000FEAF04D0070103AF12D003D0070103BF68
:102EB00013D00601FE510701035D0EE308E1025144
:102EC0000601FD5DD8A002D0070106D00701FEC6AD
:102ED00003F7FDC602F71CD005AF04D00601FEAF14
:102EE00012D003D00601FEBF12D007010551060122
:102EF000FE5D0DE308E1FD510701045DD8A002D09D
:102F0000060105D00601FEC605F7FDC604F7070158
:102F10000251045D2E6F035105592F6F010E2E27AC
:102F2000000E2F23196AF2BE198EF29E02C76DF7AA
:102F3000F7C66EF72EC76FF701C770F700016AEC8E
:102F400003F019BEF28EA7D20601F551F95D070113
:102F5000166F0601F651FA590701176F0601F7516E
:102F6000FB5D0701186F0601F851FC590701196F45
:102F70000601F551FD5D07011A6F0601F651FE5974
:102F800007011B6F0601F751FF5D07011C6F06016A
:102F9000F851070100591D6F0601F951FD5D070148
:102FA0001E6F0601FA51FE5907011F6F0601FB5102
:102FB000FF5D0701206F0601FC5107010059216FD9
:102FC000256B246B236B226B296B286B276B266B7D
:102FD0000601FF51FB5D0AE1070100510601FC5D9E
:102FE00005E1FCC609F7FBC608F70AD0010EFB5D38
:102FF0000701086F000E0601FC590701096F060161
:10300000F8C607F7F7C606F7070107AF03D009AF01
:103010000CD002D009BFEFD00751095DD8A0EBD08A
:1030200004E10651085DD8A0E6D018C700F019C722
:1030300001F0026A036A19AF02D00206030603C058
:1030400031F702C030F701C02FF700C02EF7D89239
:1030500025C735F724C734F723C733F722C732F71C
:1030600003C039F702C038F701C037F700C036F7A0
:103070000001B4DD03C031F702C030F701C02FF703
:1030800000C02EF7F5C600F0F6C601F0026A036A2A
:1030900001AE02D00206030607012E5100262F5171
:1030A0000122305102223151032201C003F700C036
:1030B00002F71CC700F01DC701F0026A036A1DAFCA
:1030C00002D00206030603C031F702C030F701C088
:1030D0002FF700C02EF7D89229C735F728C734F745
:1030E00027C733F726C732F703C039F702C038F7CE
:1030F00001C037F700C036F7000170DD03C031F7BB
:1031000002C030F701C02FF700C02EF7F5C600F05F
:10311000F6C601F0026A036A01AE02D00206030697
:1031200007012E5100262F51012230510222315128
:10313000032201C005F700C004F716C700F017C747
:1031400001F0026A036A17AF02D0020603060050BC
:1031500022270150232302502423035025231AC77A
:1031600000F01BC701F0026A036A1BAF02D002061F
:10317000030600502627015027230250282303501E
:10318000292305AF03D003AF0AD002D003BF13D069
:103190000551035D10E303E10251045D0CE203C736
:1031A0002BF702C72AF705C703F704C702F72BC797
:1031B00005F72AC704F70251045D2E6F0351055924
:1031C0002F6F010E2E27000E2F23196AF2BE198EC3
:1031D000F29E02C76DF706C76EF72EC76FF701C7DD
:1031E00070F700016AEC03F019BEF28E0701062B9E
:1031F000D8B4072B0AD70601FB510701065D006E04
:103200000601FC5107010759036E00C02EF72F6F0E
:103210001FC731F71EC730F7336F00C032F7000108
:1032200052DD02C003F001C000F002C001F0026AEA
:10323000036A01AE02D00206030603C025F702C0EE
:1032400024F701C023F700C022F70601F751070158
:10325000065D006E0601F85107010759036E00C0B4
:103260002EF72F6F1BC731F71AC730F7336F00C027
:1032700032F7000128DD02C003F001C000F002C0F7
:1032800001F0026A036A01AE02D00206030603C01F
:1032900029F702C028F701C027F700C026F7070169
:1032A00007AF03D000AF10D002D000BFF3D007515A
:1032B000005DD8A0EFD008E106510601FF5DD8B04F
:1032C00002D00701E7D0070120C700F021C701F0B5
:1032D000026A036A21AF02D00206030603C031F777
:1032E00002C030F701C02FF700C02EF7D89225C7D3
:1032F00035F724C734F723C733F722C732F703C0A3
:1033000039F702C038F701C037F700C036F70001BF
:1033100065DC03C031F702C030F701C02FF700C0F1
:103320002EF7F9C600F0FAC601F0026A036A01AE90
:1033300002D00206030607012E5100262F5101225A
:10334000305102223151032201C003F700C002F7BD
:103350001CC700F01DC701F0026A036A1DAF02D04E
:103360000206030603C031F702C030F701C02FF791
:1033700000C02EF7D89229C735F728C734F727C7DA
:1033800033F726C732F703C039F702C038F701C058
:1033900037F700C036F7000121DC03C031F702C067
:1033A00030F701C02FF700C02EF7F5C600F0F6C6C3
:1033B00001F0026A036A01AE02D0020603060701A9
:1033C0002E5100262F510122305102223151032269
:1033D00001C005F700C004F71EC700F01FC701F0C9
:1033E000026A036A1FAF02D00206030600502227BA
:1033F0000150232302502423035025231AC700F031
:103400001BC701F0026A036A1BAF02D00206030663
:103410000050262701502723025028230350292338
:1034200005AF03D003AF0AD002D003BF13D00551BC
:10343000035D10E303E10251045D0CE203C72DF7C5
:1034400002C72CF705C703F704C702F72DC705F716
:103450002CC704F70251045D2E6F035105592F6FDD
:10346000010E2E27000E2F23196AF2BE198EF29E2E
:1034700002C76DF706C76EF72EC76FF701C770F763
:1034800000016AEC03F019BEF28E0701062BD8B4D6
:10349000072B06D700011200F86AD09E078E258000
:1034A000B886080EAF6E020EB06EA60EAC6E900E11
:1034B000AB6E0F0E04013D6F190E3E6F25923F6BF0
:1034C000416B406B280E476F486B496B070E4A6F84
:1034D000260E4B6F4D6B4C6B2594010E536F25964A
:1034E0002598546B7F6B9E6B410E9F6F260EA06FCD
:1034F000050EA16F0F0EA26F0601DD6BDC6BC150D4
:10350000C00B0F09C16E070EB46E52D202001A0032
:10351000003F40260003808080800FC00004808030
:1035200080C0C03FC000088080C0E0F0F8FCF8E038
:1035300011C00005C080038000808004C00005C069
:1035400080048000FFFFFF04C00004C0800F8000E3
:10355000008080000080FFFF80800080800004C029
:1035600080038000808005C0000E80808000008C79
:103570008E84000080F8F8F8800DC0000CC0F00CBC
:1035800080E0E0C08000E0FCFEFFFFFF7F05C0FFA1
:103590000EC0000380FEFFC704C001088083FFFF48
:1035A00000007CFEC704C001358083FFFFFF0038A8
:1035B000FEC78301010183C7FFFF000001FFFF0178
:1035C0000100FFFF0701010100007FFF80000000F4
:1035D000FFFF7F0000FFFFFF000001FFFFFF010D65
:1035E000C0000580030F3F7F7F07C0FF0C80E7C747
:1035F000C78F8F9FBFFFFFC3C0F005C0FF08C0FC8F
:103600000880F8F8F0F0E0C0000105C00303800175
:10361000030304C00001800104C00308800101030A
:10362000010000000104C0030E800101030300003B
:10363000000303000000030307C00001800105C070
:10364000030D8001000000010301000000030301DD
:1036500011C000058080C0E0F0F905C0FF0C803F7C
:103660001F0F87C7F7FFFF1F1F3DFC04C0F8028034
:103670007C7D08C0FF07807F3F0F0700303016C0F9
:10368000000380FEFEFC16C0000280E0C00BC000FC
:103690000280303015C0000280C0FE09C0FF0C80DF
:1036A0007F7F3F1F0F071F7FFFFFF8F805C0FF0751
:1036B00080FEF8E00000000108C0001F80FEFE0050
:1036C0000000FCFEFC0C06060EFCF80000F0F81CE6
:1036D0000E0606060CFFFFFF0000FEFE04C00031D0
:1036E00080FCFEFC00183C7E66E6CE84000006FFEF
:1036F000FF0606FCFEFC0C0606060000FEFE0000AF
:10370000C0F8FC4E4646464E7C7840183C76E6CEE5
:10371000CC8014C000058001070F1F1F04C03F03A9
:10372000801F0F030CC00008800F0F0000000F0F58
:103730000F04C0002C800F0F000003070E0C181898
:103740000C060F0F0F0000010F0E0C180C0F0701D5
:1037500000040E0C180C0F070000000F0F00000FE4
:103760000F0F06C00016800F0F00000007070C0C9B
:10377000181C0C060600040E0C180C0F0780C00065
:103780000204450D0A0204510D0A6C04A4008000D5
:103790000000E0000080670000F0230000FE3F0012
:1037A00080FF0F00E01F0380F7FF00B05D2E004494
:1037B000870B8051B802F019AE787E0620FF9F0378
:1037C000C8FFCF7DF1FF62A0FC9CF3C71FE0FDF1B5
:1037D00003F7617EE0FFAF0FFC9FD081FFE725F08C
:1037E000EF7100FC733C00EFE20F00F0F80F0018DF
:1037F000FF0300E0FF0000F83F07C0006A800600FA
:1038000000D00300009E0000C04F0000F83F000001
:10381000FE190040FF0700D0710100345800808578
:1038200015009061050062000140B02F00101904DE
:1038300000FCFC01007E7F00807F3800C03F0F004D
:10384000E0BF0100F0170000B8050000E60100C06D
:10385000380000F8070000FF0000C03F0000E01F34
:103860000000F8070000FE0107C0006B8018000090
:1038700000070000780200003F0300E0FF0100F8AD
:103880007F0000FE190060FF0700D0E0008037369F
:1038900000E0850D00866103C0430000FC084F0076
:1038A000FFE30FC04F100FF013F8077037FE01DE73
:1038B0009B7FC0FFEE1FF8F31F007FF808C01F0EAC
:1038C0000FF0CFFF03B81FFF00C0C33F0000F81F79
:1038D0000000FE070080FF0107C0000A80070EFC01
:1038E000F9E3FF7FFEFFF709C0FF1680EFFF7FFEC1
:1038F000FFC7FF3FFCFF83FF1FF0FF00FE07801F95
:1039000000F008C00004801E8FDFEF07C0FF0D80AD
:10391000FD7FFE3FFE0FFE03FE003E000408C000D8
:103920002A800800C001003E00E003003E02E0E300
:10393000001E10E001033C20C003007800000F02CD
:10394000E0FB01FC3F80FF03E01F00F808C0002AF5
:10395000800800C001003E0FE003033E62E0E30C7C
:103960001E90E0010B3CA0C103187800000F02E09C
:10397000FB01FC3F80FF03E01F00F806C0002F8022
:10398000F8000838C001063E8FE003133E62E2E310
:103990002C1E90E4014B3CA0C503D878000C0F020C
:1039A000E0FB01FC3F80FF03E01F00F80000000087
:1039B000000EF86E350EF76E0C0EF66E0900F5501F
:1039C000006E000A13E00900F550016EE8BE05D054
:1039D0000F0BEA6E0900F5CFE9FF01BC090001AC4D
:1039E0000900F5CFEEFF004EE9D7F9D7F86A9568E0
:1039F000020EF56F780EF66F00010AEF08F09D8A4F
:103A0000C00EF212E6EF09F002C07EF401C07DF4B0
:103A1000020E04017D25E96E000E7E21EA6E130E72
:103A2000EF6E010E7D25E96E000E7E21EA6E1C0E02
:103A3000EF6E7DC4E9FF7EC4EAFFEF6A030E7D25C9
:103A4000E96E000E7E21EA6E030EEF6E040E7D25F8
:103A5000E96E000E7E21EA6E0A0EEF6E050E7D25E0
:103A6000E96E000E7E21EA6E010EEF6E060E7D25D8
:103A7000E96E000E7E21EA6E170EEF6E7EC4F6F63A
:103A80007DC4F5F600019EEF0AF0400E0601F56FC9
:103A9000000143EF0CF00E0EC16E880EC06E196A65
:103AA000F2BE198EF29EE4EC01F019BEF28E040112
:103AB00053510208D8A4B7D025923F6B196AF2BEC1
:103AC000198EF29E0001E4EC01F019BEF28E2588F9
:103AD000196AF2BE198EF29E0701686B696B800E3F
:103AE0006A6F400E6B6F000194EC03F019BEF28E0A
:103AF000060EEA6EDE0EE96E120E016EF76A000E19
:103B00007EEC01F00A000900F5CFEEFF012EFBD795
:103B1000196AF2BE198EF29E0F0E07016A6F040E2B
:103B20006B6F060E6D6FDE0E6C6F010E6E6F000117
:103B3000CCEC04F019BEF28E196AF2BE198EF29E18
:103B40000701856B846B876B0E0E866F896B800E09
:103B5000886F8B6B0E0E8A6F010E8C6F00016FECFD
:103B600002F019BEF28E196AF2BE198EF29E0A0E8A
:103B70000701686F130E696F280E6A6F6B6F000183
:103B800094EC03F019BEF28E196AF2BE198EF29E01
:103B90003C0E0701686F130E696F3C0E6A6F280EAA
:103BA0006B6F000194EC03F019BEF28E196AF2BE3D
:103BB000198EF29E67EC05F019BEF28E25A831D061
:103BC00057EF0CF0640E0601F76F0001F6EC07F0FA
:103BD000BAEC0EF05BEC0FF076EC0FF0640E060121
:103BE000F76F0001F6EC07F0BAEC0EF05BEC0FF0AB
:103BF000D9EF0FF0640E0601F76F0001F6EC07F045
:103C0000BAEC0EF05BEC0FF076EC0FF0640E0601F0
:103C1000F76F0001F6EC07F0BAEC0EF05BEC0FF07A
:103C2000CDD745D7040153510308D8A4CCD2280ED0
:103C3000476F486B496B4D6B4C6B2594196AF2BE0C
:103C4000198EF29E0001E4EC01F019BEF28E196AA1
:103C5000F2BE198EF29E0701686B696B800E6A6F67
:103C60003F0E6B6F000194EC03F019BEF28E196ADF
:103C7000F2BE198EF29E0701856B846B876B1F0E57
:103C8000866F896B230E886F8B6B1F0E8A6F010EF8
:103C90008C6F00016FEC02F019BEF28E196AF2BE51
:103CA000198EF29E0701856B230E846F876B866BDE
:103CB000896B886F8B6B3E0E8A6F010E8C6F0001D3
:103CC0006FEC02F019BEF28E196AF2BE198EF29EE6
:103CD0000701856B670E846F876B020E866F896B99
:103CE000670E886F8B6B3C0E8A6F010E8C6F000124
:103CF0006FEC02F019BEF28E196AF2BE198EF29EB6
:103D00000701856B660E846F876B060E866F896B65
:103D1000680E886F8B6B060E8A6F010E8C6F000128
:103D20006FEC02F019BEF28E196AF2BE198EF29E85
:103D30000701856B660E846F876B100E866F896B2B
:103D4000680E886F8B6B100E8A6F010E8C6F0001EE
:103D50006FEC02F019BEF28E196AF2BE198EF29E55
:103D60000701856B660E846F876B1A0E866F896BF1
:103D7000680E886F8B6B1A0E8A6F010E8C6F0001B4
:103D80006FEC02F019BEF28E196AF2BE198EF29E25
:103D90000701856B660E846F876B240E866F896BB7
:103DA000680E886F8B6B240E8A6F010E8C6F00017A
:103DB0006FEC02F019BEF28E196AF2BE198EF29EF5
:103DC0000701856B660E846F876B2E0E866F896B7D
:103DD000680E886F8B6B2E0E8A6F010E8C6F000140
:103DE0006FEC02F019BEF28E196AF2BE198EF29EC5
:103DF0000701856B660E846F876B380E866F896B43
:103E0000680E886F8B6B380E8A6F010E8C6F000105
:103E10006FEC02F019BEF28E420E0601F06F500EEA
:103E2000F16F4D0EF26F3A0EF36FF46B196AF2BE3A
:103E3000198EF29E080E07016A6F040E6B6F060E54
:103E40006D6FF00E6C6F010E6E6F0001CCEC04F024
:103E500019BEF28E310E0601F06F300EF16FF26F67
:103E6000F36B196AF2BE198EF29E6B0E07016A6F30
:103E7000030E6B6F060E6D6FF00E6C6F010E6E6FA2
:103E80000001CCEC04F019BEF28E390E0601F06F81
:103E9000300EF16FF26B196AF2BE198EF29E710E3E
:103EA00007016A6F0D0E6B6F060E6D6FF00E6C6F73
:103EB000010E6E6F0001CCEC04F019BEF28E380ECC
:103EC0000601F06F300EF16FF26B196AF2BE198EB7
:103ED000F29E710E07016A6F170E6B6F060E6D6F03
:103EE000F00E6C6F010E6E6F0001CCEC04F019BE89
:103EF000F28E370E0601F06F300EF16FF26B196A19
:103F0000F2BE198EF29E710E07016A6F210E6B6F61
:103F1000060E6D6FF00E6C6F010E6E6F0001CCEC33
:103F200004F019BEF28E360E0601F06F300EF16FFE
:103F3000F26B196AF2BE198EF29E710E07016A6F5A
:103F40002B0E6B6F060E6D6FF00E6C6F010E6E6FA9
:103F50000001CCEC04F019BEF28E300E0601F06FB9
:103F6000F16B196AF2BE198EF29E770E07016A6F25
:103F7000350E6B6F060E6D6FF00E6C6F010E6E6F6F
:103F80000001CCEC04F019BEF28E196AF2BE198E53
:103F9000F29E67EC05F019BEF28E258825A811D196
:103FA00058EF10F004013B6B3B5109080CE3000192
:103FB000A7EC10F002C003F0015004014C2702509E
:103FC0004D233B2BF1D74DC400F74CC4FFF607013E
:103FD000026B0A0E016F0001BBEC0CF002C04DF445
:103FE00001C04CF404014D51020806E2FF0A03E14E
:103FF0004C51830801E225944D5304E14C5164086F
:1040000001E3258425B402D04D6B4C6B25A420D050
:104010003B6B3B5109080CE30001A7EC10F002C018
:1040200003F0015004014C2702504D233B2BF1D7E4
:104030004DC400F74CC4FFF60701026B0A0E016F76
:104040000001BBEC0CF002C04DF401C04CF40401C3
:104050000001C1EF10F04DC4F6F64CC4F5F6F1EFD7
:1040600012F0080E0601F56F0F0EF66F4EC4F7F64C
:10407000010EF86F000199EC0EF00E0E0601F56FBF
:104080000F0EF66F4FC4F7F6010EF86F000199ECB2
:104090000EF0140E0601F56F0F0EF66F50C4F7F612
:1040A000010EF86F000199EC0EF004013B6B3B51DF
:1040B000020838E3036A3B514E0FE96E040E0320F9
:1040C000EA6EEFCF54F4545130081BE054513108DC
:1040D00018E05451320815E05451330812E054519D
:1040E00034080FE0545135080CE05451360809E00B
:1040F0005451370806E05451380803E05451390848
:104100000FE1036A3B514E0FE96E040E0320EA6E85
:10411000EFCFF5F60601F5519EA8FED7AD6E04016E
:104120003B2BC5D73B6B3B51010820E3036A3B5156
:10413000510FE96E040E0320EA6EEFCF54F4545190
:104140000D0803E054510A080FE1036A3B51510F77
:10415000E96E040E0320EA6EEFCFF5F60601F55185
:104160009EA8FED7AD6E04013B2BDDD70001C1EF49
:1041700014F0020E0601F56FFA0EF76F0001F6EC6F
:1041800007F00601F52FF8D7000173EF15F0196A53
:10419000F2BE198EF29E050E0701786F250E796F1B
:1041A000190E7A6F180E7B6F7C6B0001DEEC03F04A
:1041B00019BEF28E04014D6B4C6B00015BEC0FF0ED
:1041C000EDD6040130D5532DA7D0196AF2BE198E51
:1041D000F29E0001E4EC01F019BEF28E258825A8BC
:1041E00099D0040E0601DD6F550EDC6FD80EF66E09
:1041F0000F0EF76E0001D7EC15F0040E0601DD6F0F
:10420000690EDC6FE20EF66E0F0EF76E0001D7EC52
:1042100015F0196AF2BE198EF29E0701856B0E0E1B
:10422000846F876B200E866F896B720E886F8B6B25
:10423000200E8A6F010E8C6F00016FEC02F019BE28
:10424000F28E0601F66B060EF56FF86B180EF76F1F
:10425000FA6B0E0EF96FFC6B200EFB6FFE6B060EF9
:10426000FD6F0701006B280E0601FF6F010E0701AD
:10427000016F00018DEC16F00601F66B720EF56F02
:10428000F86B200EF76FFA6B7A0EF96FFC6B180E55
:10429000FB6FFE6B7A0EFD6F0701006B280E0601A7
:1042A000FF6F010E0701016F00018DEC16F0196A16
:1042B000F2BE198EF29E100E07016A6F0C0E6B6F24
:1042C000040E6D6F550E6C6F020E6E6F0001CCEC1C
:1042D00004F019BEF28E196AF2BE198EF29E100E0B
:1042E00007016A6F260E6B6F040E6D6F690E6C6F9F
:1042F000020E6E6F0001CCEC04F019BEF28E196A4A
:10430000F2BE198EF29E67EC05F019BEF28E5BECE0
:0E4310000FF065D7040157D758EF1DF00300DA
:020000040030CA
:0E00000020CC3E1E0087A1000FC00FE00F4075
:00000001FF
;PIC18F4550
;CRC=4369  CREATED="25-ene.-23 10:30"
